:100000000C9424010C9441010C9441010C94410185
:100010000C9441010C9441010C9441010C94410158
:100020000C9441010C9441010C9441010C945E012B
:100030000C9441010C9441010C9441010C94410138
:100040000C9441010C9441010C9441010C94410128
:100050000C9441010C9441010C9441010C94410118
:100060000C9441010C944101000000000000005F6D
:1000700000000007000700147F147F14242A7F2A41
:10008000122313086462364955225000050300000C
:10009000001C2241000041221C0014083E081408E4
:1000A000083E0808005030000008080808080060F2
:1000B00060000020100804023E5149453E00427F86
:1000C000400042615149462141454B311814127F8D
:1000D0001027454545393C4A494930017109050316
:1000E0003649494936064949291E0036360000007E
:1000F0005636000008142241001414141414004150
:100100002214080201510906324979413E7E11113B
:10011000117E7F494949363E414141227F4141227A
:100120001C7F494949417F090909013E4149497AF2
:100130007F0808087F00417F41002040413F017F48
:10014000081422417F404040407F020C027F7F0420
:1001500008107F3E4141413E7F090909063E415159
:10016000215E7F09192946464949493101017F012C
:10017000013F4040403F1F2040201F3F4038403F4C
:100180006314081463070870080761514945430068
:100190007F41410002040810200041417F00040219
:1001A0000102044040404040000102040020545439
:1001B00054787F48444438384444442038444448C0
:1001C0007F3854545418087E0901020C5252523E92
:1001D0007F0804047800447D40002040443D007FB7
:1001E0001028440000417F40007C041804787C08FB
:1001F00004047838444444387C1414140808141453
:10020000187C7C080404084854545420043F44409B
:10021000203C4040207C1C2040201C3C4030403C86
:1002200044281028440C5050503C4464544C440022
:100230000836410000007F00000041360800100829
:10024000081008000000000011241FBECFEFD8E006
:10025000DEBFCDBF11E0A0E0B1E0E2E2F4E102C018
:1002600005900D92AA39B107D9F723E0AAE9B1E0C8
:1002700001C01D92AE3DB207E1F70E94C7060C9483
:100280000F0A0C94000010928000E1E8F0E0108268
:100290001092850010928400808188608083808124
:1002A0008560808387E092E0909389008093880046
:1002B000EFE6F0E080818260808308951F920F92C4
:1002C0000FB60F9211242F933F934F935F936F9329
:1002D0007F938F939F93AF93BF93CF93DF93EF93CE
:1002E000FF9380919C0190919D01019709F021C19C
:1002F00080919A0190919B01892B09F01AC140913C
:10030000020150910301BA0164507109209110015A
:10031000309111016217730701F580919C03909150
:100320009D03019690939D0380939C030A97ACF0E4
:1003300080919A0390919B0301968A3091052CF449
:1003400090939B0380939A0304C010929B03109296
:100350009A0310929D0310929C0380910601909144
:1003600007016817790719F560919C0370919D0347
:100370006F5F7F4F70939D0360939C036A3071059C
:10038000B4F060919A0370919B036F5F7F4F6A3066
:1003900071052CF470939B0360939A0304C0109230
:1003A0009B0310929A0310929D0310929C036091FC
:1003B000040170910501E0911401F0911501E61717
:1003C000F7073CF4E0911601F09117016E177F07D3
:1003D0001CF042175307A1F0E0910A01F0910B01C4
:1003E000E617F7071CF04817590751F0E0910C0188
:1003F000F0910D016E177F074CF04817590731F443
:1004000041E050E050939B0140939A01409151018B
:10041000509152014F5F5F4F5093520140935101F1
:100420004E3251050CF485C0215031093093110131
:1004300020931001019790930701809306010E9479
:10044000930962E370E00E945A07EC018091100169
:10045000909111018B9789F51092540110925301DC
:1004600081E590E09093070180930601C0FD13C0E1
:100470000E94930960E270E00E945A079C012E5F7F
:100480003F4F30930B0120930A010C9690930D017E
:1004900080930C0112C00E94930965E070E00E94F5
:1004A0005A079C01235F3F4F30930D0120930C01AD
:1004B000039690930B0180930A018091060190911D
:1004C00007018B9769F581E590E090931101809386
:1004D0001001C0FF13C00E94930960E270E00E9407
:1004E0005A079C012E5F3F4F309315012093140152
:1004F0000C96909317018093160112C00E949309E5
:1005000065E070E00E945A079C01235F3F4F3093E3
:1005100017012093160103969093150180931401FF
:1005200080919E0190919F01019690939F018093ED
:100530009E01FF91EF91DF91CF91BF91AF919F917C
:100540008F917F916F915F914F913F912F910F907C
:100550000FBE0F901F9018951F93CF93DF93EC0160
:100560000E945F04209729F0C130D10509F448C0EA
:100570003FC10E945F0462E08AE00E94540561E08E
:100580008BE591E00E9444052FE04EE46EE085E0AB
:100590000E946E0564E184E10E945405809155013A
:1005A00090915601019769F461E087E691E00E941D
:1005B00044056EE184E10E94540561E080E791E02A
:1005C00013C08091550190915601029709F010C116
:1005D00061E086E791E00E9444056EE184E10E94BB
:1005E000540561E08FE791E00E94440568E281E0F4
:1005F0000E94540561E089E991E00E944405F8C039
:1006000080919A0190919B01892B09F086C02FE27D
:1006100041E56FE288E00E94320620E041E560E0BB
:1006200088E00E94320680915101909152018E978C
:100630000CF46AC08091530190915401892BD1F040
:1006400080911001909111018C3291059CF02091C4
:100650001401482F609112018E5F0E943206809132
:10066000100120911801482F609116018E5F0E94A1
:1006700032064AC08091100120911401482F6091E8
:1006800012018E5F0E9432068091100120911801A4
:10069000482F609116018E5F0E94320680910601FC
:1006A00020910A01482F609108018E5F0E94320656
:1006B0008091060120910E01482F60910C018E5F00
:1006C0000E94320680919C0390919D03C5E0C89FD3
:1006D000B001C99F700D1124665E7E4F82E00E94BA
:1006E0003A0580919A0390919B03C89FB001C99FDE
:1006F000700D1124665E7E4F81E00E943A0561E034
:1007000087E991E00E944405409100016091040155
:10071000809102010E9453066BC02FEF89E698E199
:10072000215080409040E1F700C0000062E08AE084
:100730000E94540561E085E891E00E9444056FE065
:100740008AE00E94540580919C0390919D0315E0DE
:10075000189FB001199F700D1124665E7E4F82E0D4
:100760000E943A0580919A0390919B03189FB001D3
:10077000199F700D1124665E7E4F81E00E943A053C
:1007800061E080E991E00E9444050E9459052FEF45
:100790008DE399E4215080409040E1F700C00000D3
:1007A00010929D0110929C01D0935601C093550167
:1007B00010929B0110929A01D0935401C09353015F
:1007C00081E590E0909311018093100190930701CF
:1007D0008093060188E190E09093050180930401E5
:1007E00010929B0310929A0310929D0310929C0307
:1007F000DF91CF911F910C9459052998662311F030
:100800002B9A01C02B9827E030E090E0AC01022E3B
:1008100002C0559547950A94E2F740FF02C02C9A12
:1008200001C02C982D9A2D982150310978F7299ADA
:10083000089560E00C94FD03CF93DF93219A229AF0
:10084000239A249A259A2A9A299A8FE39CE9019758
:10085000F1F700C000002A989FEF2AE683E091504C
:1008600020408040E1F700C000002A9A299881E2E8
:100870000E94190483E10E94190486E00E94190471
:1008800082EC0E94190480E20E94190489E00E940F
:10089000190480E80E94190480E40E941904C8EF3A
:1008A000D1E061E080E00E94FD032197D1F788E06C
:1008B0000E9419048CE0DF91CF910C94190480E818
:1008C0000E94190480E40E94190410929803109267
:1008D000990388EF91E0E0EAF1E0DF019C011D92CD
:1008E00021503040E1F70895811102C084E201C037
:1008F00080E20C941904962F969596959695E82F7C
:10090000F0E084E5989FE00DF11D1124E056FE4FC4
:10091000677081E090E001C0880F6A95EAF7442390
:1009200019F09081892B03C0809590818923808361
:1009300008958F929F92AF92BF92DF92EF92FF92B3
:100940000F931F93CF93DF9300D000D01F92CDB7AA
:10095000DEB7F62E282F082E000C330B80326CF0F9
:100960002052310985E0829FB001839F700D1124D0
:1009700068597F4F45E050E00EC0220F331FF90148
:10098000E256FC4F008111810115110559F445E033
:1009900050E068E670E0CE0101960E94A3098E0146
:1009A0000F5F1F4F85E0F89E5001112497E0F99EDC
:1009B00040011124D12C8D2D90E08A159B0544F522
:1009C000E12C8E2D90E08815990504F58D2D6F2D65
:1009D0000E944E07F801E80FF11D208130E08E2DB6
:1009E0000E944E0702C0359527958A95E2F76091DF
:1009F0009903809198036E0D20FF02C041E001C071
:100A000040E08D0D0E947B04E394DBCFD394D3CFE1
:100A10008091980391E0980F8F2D880F880F8F0D8C
:100A2000890F843518F4809398030BC010929803B3
:100A3000809199038F5F97E0F99E800D1124809338
:100A4000990380919903803320F0109298031092BB
:100A500099030F900F900F900F900F90DF91CF910F
:100A60001F910F91FF90EF90DF90BF90AF909F90FC
:100A70008F90089580323CF4E82FEE0FFF0BE25682
:100A8000FC4F7183608308951F93CF93DF93162FDC
:100A9000EC018991882321F0612F0E949904F9CFFC
:100AA000DF91CF911F9108958093980360939903EC
:100AB0000895CF93DF9380E80E94190480E40E9498
:100AC0001904C0EAD1E061E089910E94FD0383E04E
:100AD000C839D807C1F7DF91CF9108954F925F923F
:100AE0006F927F928F929F92AF92BF92CF92DF923E
:100AF000EF92FF92CF93DF93CDB7DEB72E970FB66D
:100B0000F894DEBF0FBECDBF8D876987F22E642FAC
:100B100070E0681B7109072E000C880B990B0E946E
:100B200092084B015C016F2D70E02985621B7109F1
:100B3000072E000C880B990B0E9492086B017C0118
:100B400024013501E89477F8DC01CB01BF77898374
:100B50009A83AB83BC839C01AD01C301B2010E94A7
:100B60001E0987FF04C049805A806B807C80A301E6
:100B70009201C501B4010E94EF0769837A838B83D8
:100B80009C83A3019201C701B6010E94EF076D8308
:100B90007E838F839887AD856A2F70E080E090E038
:100BA0000E9490086B017C01B9856B2F70E080E09A
:100BB00090E00E9490084B015C0121E030E03E870C
:100BC0002D87AD85BE85BD01BB0F880B990B0E949B
:100BD00092089B01AC01C301B2010E941E0987FD6E
:100BE0002CC0C501B4010E94610869877A878B8790
:100BF0009C87C701B6010E946108DC01CB0141E07E
:100C000069850E947B0429813A814B815C81C701FF
:100C1000B6010E9483076B017C012D813E814F81CB
:100C20005885C501B4010E9483074B015C018D8585
:100C30009E8501969E878D87C4CF2E960FB6F89419
:100C4000DEBF0FBECDBFDF91CF91FF90EF90DF9061
:100C5000CF90BF90AF909F908F907F906F905F905C
:100C60004F9008950F931F93CF93DF93C82F162FA4
:100C7000042FD22F262F0E946E052D2F402F612F7B
:100C8000802F0E946E052D2F4C2F6D2F802F0E94DC
:100C90006E05212F4C2F6D2F8C2FDF91CF911F913F
:100CA0000F910C946E057F928F929F92AF92BF929C
:100CB000CF92DF92EF92FF920F931F93CF93DF9328
:100CC000D82EC62EC42FD0E0E12CF12C00E010E08D
:100CD00041E0AC2CA00E6A2DBC2EBD0C8B2D0E94C9
:100CE0007B0441E08C2E8C0C682D9D2C900E892D60
:100CF0000E947B0441E0682D7D2C701A872D0E9494
:100D00007B0441E06A2D8D2C8C1A882D0E947B0477
:100D100041E0AC2CA01A6A2D882D0E947B0441E092
:100D20008C2C8C1A682D872D0E947B0441E0682D45
:100D3000892D0E947B0441E06A2D8B2D0E947B044B
:100D40001E141F045CF00F5F1F4FC801880F991F0E
:100D50000196E80EF91E1E141F043CF42197CE01E3
:100D6000880F991F0196E81AF90AC017D1070CF0ED
:100D7000AFCFDF91CF911F910F91FF90EF90DF9058
:100D8000CF90BF90AF909F908F907F900895509894
:100D9000589A5198599A52985A9A3B98439AF8946B
:100DA0000E941C040E945F046CE471E085E00E94D4
:100DB0003A050E9443017894C2E0D0E080919C0102
:100DC00090919D01892B09F03FC080E090E00E9446
:100DD000AC0248990FC081E090E090935601809357
:100DE00055012FEF82E597E0215080409040E1F7D8
:100DF00000C0000049990DC0D0935601C093550121
:100E00002FEF82E597E0215080409040E1F700C04D
:100E100000004A990CC08091550190915601813093
:100E2000910529F490939D0180939C01C7CF4A9925
:100E3000C5CF8091550190915601029709F0BECF20
:100E400080E00E947404BACF81E090E00E94AC027E
:100E500080910401909105019C012F5F3F4F3093D9
:100E60000501209304012E32310531F441E050E0B8
:100E700050939B0140939A013399A0CF25303105BF
:100E800034F00297909305018093040197CF81E09D
:100E900090E090939B0180939A0190CF991B79E009
:100EA00004C0991F961708F0961B881F7A95C9F7FA
:100EB0008095089597FB072E16F4009407D077FDD0
:100EC00009D00E946E0707FC05D03EF490958195ED
:100ED0009F4F0895709561957F4F0895AA1BBB1B86
:100EE00051E107C0AA1FBB1FA617B70710F0A61B2A
:100EF000B70B881F991F5A95A9F780959095BC014B
:100F0000CD0108955058BB27AA270E949A070C9438
:100F1000E4080E94D60838F00E94DD0820F039F479
:100F20009F3F19F426F40C94D3080EF4E095E7FBE8
:100F30000C94CD08E92F0E94F50858F3BA17620700
:100F400073078407950720F079F4A6F50C94170928
:100F50000EF4E0950B2EBA2FA02D0B01B9019001D4
:100F60000C01CA01A0011124FF27591B99F0593F18
:100F700050F4503E68F11A16F040A22F232F342F60
:100F80004427585FF3CF469537952795A795F040AE
:100F90005395C9F77EF41F16BA0B620B730B840BC3
:100FA000BAF09150A1F0FF0FBB1F661F771F881F7B
:100FB000C2F70EC0BA0F621F731F841F48F48795D3
:100FC00077956795B795F7959E3F08F0B0CF9395C5
:100FD000880F08F09927EE0F9795879508950E943E
:100FE00003080C94E4080E94DD0858F00E94D6081B
:100FF00040F029F45F3F29F00C94CD0851110C9476
:1010000018090C94D3080E94F50868F39923B1F3EA
:10101000552391F3951B550BBB27AA27621773071E
:10102000840738F09F5F5F4F220F331F441FAA1FB2
:10103000A9F335D00E2E3AF0E0E832D0915050406E
:10104000E695001CCAF72BD0FE2F29D0660F771F1C
:10105000881FBB1F261737074807AB07B0E809F002
:10106000BB0B802DBF01FF2793585F4F3AF09E3F87
:10107000510578F00C94CD080C9418095F3FE4F307
:10108000983ED4F3869577956795B795F7959F5FCA
:10109000C9F7880F911D9695879597F90895E1E016
:1010A000660F771F881FBB1F621773078407BA0775
:1010B00020F0621B730B840BBA0BEE1F88F7E095D0
:1010C00008950E94FD0888F09F5798F0B92F99273E
:1010D000B751B0F0E1F0660F771F881F991F1AF023
:1010E000BA95C9F714C0B13091F00E941709B1E068
:1010F00008950C941709672F782F8827B85F39F067
:10110000B93FCCF3869577956795B395D9F73EF4BB
:1011100090958095709561957F4F8F4F9F4F089563
:10112000E89409C097FB3EF4909580957095619581
:101130007F4F8F4F9F4F9923A9F0F92F96E9BB2737
:101140009395F695879577956795B795F111F8CFB3
:10115000FAF4BB0F11F460FF1BC06F5F7F4F8F4F1E
:101160009F4F16C0882311F096E911C0772321F014
:101170009EE8872F762F05C0662371F096E8862FAC
:1011800070E060E02AF09A95660F771F881FDAF703
:10119000880F9695879597F9089597F99F6780E846
:1011A00070E060E008959FEF80EC089500240A94B9
:1011B0001616170618060906089500240A94121632
:1011C0001306140605060895092E0394000C11F465
:1011D000882352F0BB0F40F4BF2B11F460FF04C012
:1011E0006F5F7F4F8F4F9F4F089557FD9058440F6B
:1011F000551F59F05F3F71F04795880F97FB991F76
:1012000061F09F3F79F08795089512161306140632
:10121000551FF2CF4695F1DF08C0161617061806BF
:10122000991FF1CF86957105610508940895E8949A
:10123000BB2766277727CB0197F908950E942309DA
:1012400008F48FEF0895990F0008550FAA0BE0E8F6
:10125000FEEF16161706E807F907C0F01216130678
:10126000E407F50798F0621B730B840B950B39F4B8
:101270000A2661F0232B242B252B21F408950A261E
:1012800009F4A140A6958FEF811D811D08958F92CD
:101290009F92AF92BF92CF92DF92EF92FF92CF9345
:1012A000DF93EC01688179818A819B8161157105E9
:1012B0008105910521F464E279ED8BE597E02DE15C
:1012C00033EF41E050E00E94AC0949015A019B0113
:1012D000AC01A7EAB1E40E94CB096B017C01ACEE42
:1012E000B4EFA50194010E94D909DC01CB018C0D5A
:1012F0009D1DAE1DBF1DB7FF03C00197A109B048DA
:1013000088839983AA83BB839F77DF91CF91FF90D6
:10131000EF90DF90CF90BF90AF909F908F90089507
:101320000E944709089587E591E00E9447090895C2
:10133000A0E0B0E08093570190935801A093590129
:10134000B0935A010895FB01DC0102C005900D9293
:1013500041505040D8F70895052E97FB1EF4009495
:101360000E94C30957FD07D00E94DE0907FC03D085
:101370004EF40C94C30950954095309521953F4FFC
:101380004F4F5F4F089590958095709561957F4F71
:101390008F4F9F4F08950E94000AA59F900DB49F04
:1013A000900DA49F800D911D11240895B7FF0C94FA
:1013B000CB090E94CB09821B930B0895A1E21A2E40
:1013C000AA1BBB1BFD010DC0AA1FBB1FEE1FFF1FE9
:1013D000A217B307E407F50720F0A21BB30BE40B39
:1013E000F50B661F771F881F991F1A9469F7609580
:1013F0007095809590959B01AC01BD01CF0108953A
:10140000A29FB001B39FC001A39F700D811D112445
:10141000911DB29F700D811D1124911D0895F894A6
:02142000FFCFFC
:1014220001001400180051000100100020002F00DC
:1014320051000100100020002F003E5149453E009E
:10144200427F400042615149462141454B311814C7
:10145200127F1027454545393C4A494930017109F7
:1014620005033649494936064949291E3E3E1C1C98
:101472000801000100010001000000466C6170706B
:101482007920426972640005496E6963696172007C
:1014920009536169720009496E69636961720005E5
:1014A200536169720047414D45204F564552210014
:0A14B20053434F52453A2001020057
:00000001FF
