:100000000C9424010C9441010C9441010C94410185
:100010000C9441010C9441010C9441010C94410158
:100020000C9441010C9441010C9441010C945E012B
:100030000C9441010C9441010C9441010C94410138
:100040000C9441010C9441010C9441010C94410128
:100050000C9441010C9441010C9441010C94410118
:100060000C9441010C944101000000000000005F6D
:1000700000000007000700147F147F14242A7F2A41
:10008000122313086462364955225000050300000C
:10009000001C2241000041221C0014083E081408E4
:1000A000083E0808005030000008080808080060F2
:1000B00060000020100804023E5149453E00427F86
:1000C000400042615149462141454B311814127F8D
:1000D0001027454545393C4A494930017109050316
:1000E0003649494936064949291E0036360000007E
:1000F0005636000008142241001414141414004150
:100100002214080201510906324979413E7E11113B
:10011000117E7F494949363E414141227F4141227A
:100120001C7F494949417F090909013E4149497AF2
:100130007F0808087F00417F41002040413F017F48
:10014000081422417F404040407F020C027F7F0420
:1001500008107F3E4141413E7F090909063E415159
:10016000215E7F09192946464949493101017F012C
:10017000013F4040403F1F2040201F3F4038403F4C
:100180006314081463070870080761514945430068
:100190007F41410002040810200041417F00040219
:1001A0000102044040404040000102040020545439
:1001B00054787F48444438384444442038444448C0
:1001C0007F3854545418087E0901020C5252523E92
:1001D0007F0804047800447D40002040443D007FB7
:1001E0001028440000417F40007C041804787C08FB
:1001F00004047838444444387C1414140808141453
:10020000187C7C080404084854545420043F44409B
:10021000203C4040207C1C2040201C3C4030403C86
:1002200044281028440C5050503C4464544C440022
:100230000836410000007F00000041360800100829
:10024000081008000000000011241FBECFEFD8E006
:10025000DEBFCDBF11E0A0E0B1E0E0E3F3E102C01A
:1002600005900D92A237B107D9F723E0A2E7B1E0DC
:1002700001C01D92A23BB207E1F70E942D060C942B
:1002800096090C94000010928000E1E8F0E01082E2
:100290001092850010928400808188608083808124
:1002A0008560808387E092E0909389008093880046
:1002B000EFE6F0E080818260808308951F920F92C4
:1002C0000FB60F9211242F933F934F935F936F9329
:1002D0007F938F939F93AF93BF93CF93DF93EF93CE
:1002E000FF938091740190917501019709F0B9C055
:1002F0008091040190910501209114013091150124
:10030000281739073CF42091160130911701821704
:1003100093075CF04091100150911101209102016E
:10032000309103014217530721F120910A013091C6
:100330000B01281739075CF0409106015091070125
:1003400020910201309103014217530791F020914F
:100350000C0130910D01821793078CF0209106015A
:10036000309107018091020190910301281739070C
:1003700031F481E090E09093730180937201809159
:100380001F019091200101969093200180931F01FD
:100390008E970CF466C08091100190911101019725
:1003A00090931101809310018091060190910701B3
:1003B000019790930701809306010E941A0962E356
:1003C00070E00E94C006EC01809110019091110133
:1003D0008B97F1F4109222011092210183E590E0B5
:1003E0009093070180930601C0FD4EC00E941A0938
:1003F00060E270E00E94C0069C012E5F3F4F309388
:100400000B0120930A010C9690930D0180930C012F
:1004100080910601909107018B97D1F483E590E0DC
:100420009093110180931001C0FF41C00E941A09EE
:1004300060E270E00E94C0069C012E5F3F4F309347
:100440001501209314010C969093170180931601C7
:100450008091760190917701019690937701809336
:100460007601FF91EF91DF91CF91BF91AF919F9175
:100470008F917F916F915F914F913F912F910F904D
:100480000FBE0F901F9018950E941A0960E170E04E
:100490000E94C0069C012E5F3F4F30930D012093B8
:1004A0000C01089790930B0180930A01B1CF0E9431
:1004B0001A0960E170E00E94C0069C012E5F3F4F68
:1004C000309317012093160108979093150180939C
:1004D0001401BECFCF93DF93EC010E949F032097BE
:1004E00039F0219709F44AC0DF91CF910C948E0422
:1004F0000E949F0362E08AE00E94890461E089E231
:1005000091E00E9479042FE04EE46EE085E00E94C5
:10051000A30464E184E10E94890480912301909105
:1005200024010197C1F461E085E391E00E94790420
:100530006EE184E10E94890461E08EE391E00E9413
:10054000790468E281E00E94890461E084E491E03A
:100550000E947904C9CF80912301909124010297D0
:1005600019F661E087E491E00E9479046EE184E18C
:100570000E94890461E080E591E0E1CF8091720101
:1005800090917301892B09F059C02FE243E56FE286
:1005900081E00E94980520E043E560E081E00E9450
:1005A000980580911F01909120018E97FCF0809119
:1005B0001001909111012091140142E0480F6091C7
:1005C0001201E0912101F0912201EF2BC1F08C3258
:1005D0009105ACF00E9498058091100142E0480F0F
:1005E00020911801609116010E9498054091000128
:1005F00060910401809102010E94B90575CF0E94AB
:1006000098058091100142E0480F209118016091F7
:1006100016010E9498058091060142E0480F209142
:100620000A01609108010E9498058091060142E04C
:10063000480F20910E0160910C01D6CF2FEF89E673
:1006400098E1215080409040E1F700C0000062E056
:100650008AE00E94890461E086E591E00E947904C5
:100660006FE08AE00E94890461E083E691E00E94E5
:10067000790461E08BE691E06BCF29986623A9F0BD
:100680002B9A27E030E090E0AC01022E02C0559595
:1006900047950A94E2F740FF0AC02C9A2D9A2D98AC
:1006A0002150310988F7299A08952B98EACF2C9880
:1006B000F5CF60E00C943D03CF93DF93219A229A0B
:1006C000239A249A259A2A9A299A8FE39CE90197DA
:1006D000F1F700C000002A989FEF2AE683E09150CE
:1006E00020408040E1F700C000002A9A299881E26A
:1006F0000E94590383E10E94590386E00E94590336
:1007000082EC0E94590380E20E94590389E00E9412
:10071000590380E80E94590380E40E945903C8EFFE
:10072000D1E061E080E00E943D032197D1F788E0AD
:100730000E9459038CE0DF91CF910C94590380E81B
:100740000E94590380E40E9459031092B003109252
:10075000B103E8EBF1E088EF91E0DF019C011D922D
:1007600021503040E1F70895811103C084E20C94D8
:10077000590380E2FCCF962F969596959695E82F93
:10078000F0E084E5989FE00DF11D1124E854FE4F40
:100790002081677081E090E001C0880F6A95EAF7D8
:1007A000442319F0282B2083089580952823FBCF1C
:1007B0008F929F92AF92BF92DF92EF92FF920F9330
:1007C0001F93CF93DF9300D000D00F92CDB7DEB749
:1007D000E82FF62E80320CF44DC0E05285E0E8029E
:1007E000B001112468597F4F45E050E0CE010196D9
:1007F0000E942A098E010F5F1F4F95E0F99E50015C
:10080000112487E0F89E40011124E12CEA141B0416
:100810000CF463C08091B0038F5F9F2D990F990FE7
:100820009F0D890F8093B003843558F08091B103F8
:100830001092B0038F5F97E0F99E800D1124809392
:10084000B1038091B103803320F01092B003109275
:10085000B1030F900F900F900F900F90DF91CF91F9
:100860001F910F91FF90EF90DF90BF90AF909F90FE
:100870008F900895EE0FFF0BE858FE4F0081118115
:100880000115110509F0B9CF45E050E068E670E0C8
:10089000ADCFED0D5E0D8E2D6F2D0E94B406D801EB
:1008A000A80FB11D2C9130E08D2D0E94B40602C01E
:1008B000359527958A95E2F741E020FF40E06E2FBD
:1008C000852F0E94BB03D394E091B1035091B003F4
:1008D000D8141904F4F2E39499CFD12CF5CFE82F72
:1008E000803234F4EE0FFF0BE858FE4F71836083C3
:1008F00008951F93CF93DF93162FEC0189918111F7
:1009000004C0DF91CF911F910895612F0E94D803F9
:10091000F5CF8093B0036093B1030895CF93DF9335
:1009200080E80E94590380E40E945903C8EBD1E09B
:1009300061E089910E943D0383E0C03BD807C1F785
:10094000DF91CF9108954F925F926F927F928F9235
:100950009F92AF92BF92CF92DF92EF92FF92CF938E
:10096000DF93CDB7DEB762970FB6F894DEBF0FBE48
:10097000CDBF8D876987F22E481B550BCA01550FD5
:10098000AA0BBB0B89839A83AB83BC83BC01CD01CB
:100990000E94FD0769837A838B839C83AF2D4985F1
:1009A000A41BBB0BCD01BB0FAA0BBB0B8D839E837E
:1009B000AF83B887BC01CD010E94FD076D837E83A4
:1009C0008F839887C980DA80EB80FC80E894F7F801
:1009D0004B015C01E894B7F8A5019401C701B60189
:1009E0000E94AD0887FF02C075016401A70196014E
:1009F00069817A818B819C810E945A0769837A83FD
:100A00008B839C834B015C01A70196016D817E81E4
:100A10008F8198850E945A072B013C019D85892F63
:100A200090E0B0E0A0E089839A83AB83BC83BC01F3
:100A3000CD010E94FB0769837A838B839C83998510
:100A4000892F90E0B0E0A0E08D839E83AF83B887CC
:100A5000BC01CD010E94FB076D837E838F83988745
:100A6000A1E0B0E0BA8BA98B89899A89092E000C84
:100A7000AA0BBB0B89879A87AB87BC87BC01CD01CA
:100A80000E94FD0769877A878B879C87A70196015B
:100A90000E9455071816ACF462960FB6F894DEBFA4
:100AA0000FBECDBFDF91CF91FF90EF90DF90CF9041
:100AB000BF90AF909F908F907F906F905F904F907E
:100AC00008956D817E818F8198850E94CC0769870A
:100AD0007A878B879C8769817A818B819C810E9430
:100AE000CC076D877E878F87988B41E069858D85E0
:100AF0000E94BB03A501940169817A818B819C814D
:100B00000E94E90669837A838B839C83A301920107
:100B10006D817E818F8198850E94E9066D837E8339
:100B20008F83988789899A8901969A8B898B9CCF24
:100B30000F931F93CF93DF93C82F162F042FD22F1D
:100B4000262F0E94A3042D2F402F612F802F0E945B
:100B5000A3042D2F4C2F6D2F802F0E94A304212F33
:100B60004C2F6D2F8C2FDF91CF911F910F910C94F3
:100B7000A3047F928F929F92AF92BF92CF92DF9207
:100B8000EF92FF920F931F93CF93DF93D82EC62E31
:100B9000C42FD0E0F12CE12C10E000E041E0AC2CBF
:100BA000A00E6A2DBC2EBD0C8B2D0E94BB0341E014
:100BB0008C2E8C0C682D9D2C900E892D0E94BB03D1
:100BC00041E0682D7D2C701A872D0E94BB0341E007
:100BD0006A2D8D2C8C1A882D0E94BB0341E0AC2C11
:100BE000A01A6A2D882D0E94BB0341E08C2C8C1A20
:100BF000682D872D0E94BB0341E0682D892D0E943E
:100C0000BB0341E06A2D8B2D0E94BB031E141F0401
:100C10005CF00F5F1F4FC801880F991F0196E80E07
:100C2000F91E1E141F043CF42197CE01880F991F52
:100C30000196E81AF90AC017D1070CF0AFCFDF917F
:100C4000CF911F910F91FF90EF90DF90CF90BF90C9
:100C5000AF909F908F907F9008955098589A519898
:100C6000599A52985A9A3B98439AF8940E945C0376
:100C70000E949F036AE171E081E00E946F040E947C
:100C800043017894C2E0D0E08091740190917501A5
:100C9000892B21F181E090E00E946A028091040199
:100CA000909105019C012F5F3F4F309305012093E8
:100CB00004012E32310531F441E050E050937301CC
:100CC000409372013399E0CF253031050CF445C0D3
:100CD00002979093050180930401D6CF90E080E0C5
:100CE0000E946A0248990FC081E090E0909324012D
:100CF000809323012FEF82E597E0215080409040C0
:100D0000E1F700C0000049990DC0D0932401C093C1
:100D100023012FEF82E597E0215080409040E1F7DA
:100D200000C000004A990CC08091230190912401D9
:100D30008130910529F49093750180937401A4CFBB
:100D40004A99A2CF8091230190912401029709F042
:100D50009BCF80E00E94B40397CF81E090E0909316
:100D600073018093720190CF991B79E004C0991FA1
:100D7000961708F0961B881F7A95C9F780950895F5
:100D800097FB072E16F4009407D077FD09D00E9438
:100D9000D40607FC05D03EF4909581959F4F0895A9
:100DA000709561957F4F0895AA1BBB1B51E107C049
:100DB000AA1FBB1FA617B70710F0A61BB70B881FEB
:100DC000991F5A95A9F780959095BC01CD0108957A
:100DD0005058BB27AA270E9400070C9473080E9452
:100DE000650838F00E946C0820F039F49F3F19F430
:100DF00026F40C9462080EF4E095E7FB0C945C0872
:100E0000E92F0E94840858F3BA1762077307840712
:100E1000950720F079F4A6F50C94A6080EF4E09559
:100E20000B2EBA2FA02D0B01B90190010C01CA01A4
:100E3000A0011124FF27591B99F0593F50F4503E4F
:100E400068F11A16F040A22F232F342F4427585F41
:100E5000F3CF469537952795A795F0405395C9F759
:100E60007EF41F16BA0B620B730B840BBAF0915011
:100E7000A1F0FF0FBB1F661F771F881FC2F70EC0B0
:100E8000BA0F621F731F841F48F487957795679583
:100E9000B795F7959E3F08F0B0CF9395880F08F06F
:100EA0009927EE0F9795879508950E94380808F4C2
:100EB00081E008950E946E070C9473080E946C08EC
:100EC00058F00E94650840F029F45F3F29F00C9427
:100ED0005C0851110C94A7080C9462080E948408C5
:100EE00068F39923B1F3552391F3951B550BBB2759
:100EF000AA2762177307840738F09F5F5F4F220F9E
:100F0000331F441FAA1FA9F335D00E2E3AF0E0E894
:100F100032D091505040E695001CCAF72BD0FE2FDE
:100F200029D0660F771F881FBB1F26173707480772
:100F3000AB07B0E809F0BB0B802DBF01FF2793582A
:100F40005F4F3AF09E3F510578F00C945C080C948A
:100F5000A7085F3FE4F3983ED4F3869577956795AD
:100F6000B795F7959F5FC9F7880F911D969587955F
:100F700097F90895E1E0660F771F881FBB1F62177E
:100F800073078407BA0720F0621B730B840BBA0B3C
:100F9000EE1F88F7E09508950E948C0888F09F570F
:100FA00098F0B92F9927B751B0F0E1F0660F771F8D
:100FB000881F991F1AF0BA95C9F714C0B13091F083
:100FC0000E94A608B1E008950C94A608672F782F18
:100FD0008827B85F39F0B93FCCF386957795679548
:100FE000B395D9F73EF490958095709561957F4FB4
:100FF0008F4F9F4F0895E89409C097FB3EF490955A
:101000008095709561957F4F8F4F9F4F9923A9F0E1
:10101000F92F96E9BB279395F69587957795679570
:10102000B795F111F8CFFAF4BB0F11F460FF1BC0B4
:101030006F5F7F4F8F4F9F4F16C0882311F096E947
:1010400011C0772321F09EE8872F762F05C06623F5
:1010500071F096E8862F70E060E02AF09A95660FAE
:10106000771F881FDAF7880F9695879597F9089567
:10107000990F0008550FAA0BE0E8FEEF16161706A9
:10108000E807F907C0F012161306E407F50798F011
:10109000621B730B840B950B39F40A2661F0232B2A
:1010A000242B252B21F408950A2609F4A140A695A6
:1010B0008FEF811D811D089597F99F6780E870E08B
:1010C00060E008959FEF80EC089500240A941616BE
:1010D000170618060906089500240A941216130626
:1010E000140605060895092E0394000C11F48823B4
:1010F00052F0BB0F40F4BF2B11F460FF04C06F5FD0
:101100007F4F8F4F9F4F089557FD9058440F551FA5
:1011100059F05F3F71F04795880F97FB991F61F079
:101120009F3F79F087950895121613061406551FF0
:10113000F2CF4695F1DF08C0161617061806991F5C
:10114000F1CF86957105610508940895E894BB2751
:1011500066277727CB0197F908950E94380808F48D
:101160008FEF0895CF92DF92EF92FF92CF93DF93AC
:10117000CDB7DEB72A970FB6F894DEBF0FBECDBF4E
:1011800089879A87A985BA852D913D914D915C916A
:1011900029833A834B835C83232B242B252B41F417
:1011A00024E239ED4BE557E029833A834B835C8396
:1011B00069817A818B819C812DE133EF41E050E0A0
:1011C0000E94330969017A01A7EAB1E49B01AC01ED
:1011D0000E94520969837A838B839C83ACEEB4EFBF
:1011E000A70196010E9460099B01AC0189819A8147
:1011F000AB81BC81820F931FA41FB51FB7FF03C033
:101200000197A109B048E985FA8580839183A2837B
:10121000B3839F772A960FB6F894DEBF0FBECDBF7B
:10122000DF91CF91FF90EF90DF90CF9008950E94D3
:10123000B208089585E291E00E94B2080895B0E0F6
:10124000A0E08093250190932601A0932701B093FD
:1012500028010895FB01DC0102C005900D92415068
:101260005040D8F70895052E97FB1EF400940E9475
:101270004A0957FD07D00E94650907FC03D04EF4C8
:101280000C944A0950954095309521953F4F4F4F0A
:101290005F4F089590958095709561957F4F8F4F22
:1012A0009F4F08950E948709A59F900DB49F900DB0
:1012B000A49F800D911D11240895B7FF0C9452092D
:1012C0000E945209821B930B0895A1E21A2EAA1BB9
:1012D000BB1BFD010DC0AA1FBB1FEE1FFF1FA217E6
:1012E000B307E407F50720F0A21BB30BE40BF50BE3
:1012F000661F771F881F991F1A9469F7609570956C
:10130000809590959B01AC01BD01CF010895A29FEE
:10131000B001B39FC001A39F700D811D1124911DC9
:10132000B29F700D811D1124911D0895F894FFCF77
:1013300001001400180053000100100020002F00CD
:1013400053000100100020002F003E3E1C1C08012D
:10135000000100010001000000466C6170707920FE
:10136000426972640001496E6963696172000953E0
:101370006169720039390009496E696369617200F7
:1013800001536169720046696D206465206A6F6768
:101390006F210053636F72653A200073636F72654B
:0213A00000004B
:00000001FF
