:100000000C94A1010C94BE010C94C0010C94BE018F
:100010000C94BE010C9409020C94BE010C94BE0118
:100020000C94BE010C94BE010C94BE010C94ED0323
:100030000C94BE010C94BE010C94BE010C94BE0144
:100040000C94BE010C94BE010C94BE010C94BE0134
:100050000C94BE010C94BE010C94BE010C94BE0124
:100060000C94BE010C94BE0100407A10F35A00A01B
:10007000724E18090010A5D4E80000E87648170071
:1000800000E40B54020000CA9A3B000000E1F505B1
:10009000000080969800000040420F000000A086FB
:1000A00001000000102700000000E803000000002D
:1000B0006400000000000A000000000001000000D1
:1000C00000002C76D888DC674F0823DFC1DFAE59EB
:1000D000E1B1B796E5E3E453C63AE651997696E87E
:1000E000E6C28426EB898C9B62ED407C6FFCEFBC02
:1000F0009C9F40F2BAA56FA5F490055A2AF75C932D
:100100006B6CF9676DC11BFCE0E40D47FEF520E662
:10011000B500D0ED902E0300943577050080841E45
:10012000080000204E0A000000C80C333333330FA0
:10013000986E12831141EF8D2114893BE65516CF3D
:10014000FEE6DB18D1844B381BF77C1D901DA4BB49
:10015000E424203284725E228100C9F124ECA1E5FE
:100160003D27000000000000005F000000070007BE
:1001700000147F147F14242A7F2A12231308646238
:1001800036495522500005030000001C22410000A2
:1001900041221C0014083E081408083E08080050BC
:1001A00030000008080808080060600000201008FF
:1001B00004023E5149453E00427F400042615149A0
:1001C000462141454B311814127F102745454539CA
:1001D0003C4A494930017109050336494949360607
:1001E0004949291E00363600000056360000081422
:1001F0002241001414141414004122140802015165
:100200000906324979413E7E1111117E7F494949E3
:10021000363E414141227F4141221C7F49494941AB
:100220007F090909013E4149497A7F0808087F0092
:10023000417F41002040413F017F081422417F401F
:100240004040407F020C027F7F0408107F3E414106
:10025000413E7F090909063E4151215E7F09192966
:1002600046464949493101017F01013F4040403F35
:100270001F2040201F3F4038403F6314081463078D
:10028000087008076151494543007F41410002045D
:100290000810200041417F00040201020440404058
:1002A0004040000102040020545454787F484444E4
:1002B000383844444420384444487F38545454180F
:1002C000087E0901020C5252523E7F080404780055
:1002D000447D40002040443D007F10284400004100
:1002E0007F40007C041804787C0804047838444477
:1002F00044387C14141408081414187C7C08040472
:10030000084854545420043F4440203C4040207C42
:100310001C2040201C3C4030403C44281028440C09
:100320005050503C4464544C440008364100000096
:100330007F00000041360800100808100800000087
:10034000000011241FBECFEFD8E0DEBFCDBF11E00B
:10035000A0E0B1E0E4EFFFE102C005900D92A83704
:10036000B107D9F724E0A8E7B1E001C01D92AD388C
:10037000B207E1F70E94EC070C94F80F0C94000010
:100380001F920F920FB60F9211242F933F934F930A
:100390005F936F937F938F939F93AF93BF93EF93ED
:1003A000FF93809142028130A1F480E00E942805F1
:1003B000FF91EF91BF91AF919F918F917F916F913D
:1003C0005F914F913F912F910F900FBE0F901F9013
:1003D0001895809146028111EBCF9091460281E001
:1003E000911180E08093460281E0809345028093E2
:1003F00044028093410210924B02109249021092E3
:10040000480210924E0210924D0280E38093080140
:10041000CFCF1F921FB61F9211248F939F9389B144
:10042000837039F09091420281E0911180E08093D5
:1004300042029F918F911F901FBE1F9018950F939E
:100440001F93CF93DF93CDB7DEB72F970FB6F894F6
:10045000DEBF0FBECDBF8230910509F407C1D4F4D1
:10046000009709F470C0019709F4AAC00E9413050F
:1004700024E14EE46EE085E00E940C072F960FB653
:10048000F894DEBF0FBECDBFDF91CF911F910F91CA
:100490000C940206039751F70E94130562E080E076
:1004A0000E94FD0580914A0261E087FF48C18BE40C
:1004B00091E00E94ED052FE04EE46EE085E00E94A1
:1004C000170664E185E00E94FD0561E087E691E0A2
:1004D0000E94ED0580914D0290914E029C01990F72
:1004E000440B550B2C873D874E875F87CA01B901A6
:1004F0000E94D20B6C877D878E879F878E010F5F4E
:100500001F4F20E045E00E94870C61E0C8010E9477
:10051000ED056EE185E00E94FD0561E08FE691E06A
:100520000E94ED0580914802282F30E050E040E025
:100530002C873D874E875F87CA01B9010E94D00B87
:100540000B5F1F4FF9C00E94130562E08AE00E9412
:10055000FD0561E082E191E00E94ED052FE04EE4AF
:100560006EE085E00E94170664E184E10E94FD05CB
:100570008091420261E0811117C08EE191E00E94FA
:10058000ED0563E284E10E94FD0561E088E291E00F
:100590002F960FB6F894DEBF0FBECDBFDF91CF917F
:1005A0001F910F910C94ED058EE291E00E94ED05F4
:1005B00063E284E10E94FD0561E088E391E0E8CF19
:1005C0000E9413052FE240E260E08FE10E941706CF
:1005D00025E243E564E280E20E94170660E080E0E5
:1005E0000E94FD058E010F5F1F4F20E044E060E098
:1005F00070E0CB010E94870C61E0C8010E94ED050C
:100600006DE085E00E94FD0561E08EE391E00E94CF
:10061000ED0569E180E00E94FD050B5F1F4F20E0C2
:1006200044E060E070E0CB010E94870C61E0C8010B
:100630000E94ED0565E280E00E94FD050D5F1F4F01
:1006400020E044E060E070E0CB010E94870C61E0B4
:10065000C8010E94ED052F960FB6F894DEBF0FBEBD
:10066000CDBFDF91CF911F910F9108950E94130587
:100670002FE240E260E08FE10E94170625E243E5A9
:1006800064E280E20E94170660E080E00E94FD05BF
:1006900080914D0290914E029C01990F440B550B95
:1006A0002C873D874E875F87CA01B9010E94D20B14
:1006B0006C877D878E879F878E010F5F1F4F20E09D
:1006C00044E00E94870C61E0C8010E94ED0569E1E9
:1006D00080E00E94FD0580914902282F30E050E023
:1006E00040E02C873D874E875F87CA01B9010E9491
:1006F000D00B6C877D878E879F870B5F1F4F20E015
:1007000044E00E94870C61E0C8010E94ED0565E2AB
:1007100080E00E94FD0580914A02282F880F330B4C
:10072000440B550B2C873D874E875F87CA01B90163
:100730000E94D20B0D5F1F4F20E044E086CF89E579
:1007400091E0B7CE0F931F93CF93DF9310924302A4
:100750008FE290E061E09C010197FC01EF5EFD4FAC
:100760007081A9014F5E5D4FFA017083FC01EF516A
:10077000FE4F7081E901CF51DE4F7883FC01EF54C9
:10078000FE4F7081D901AF54BE4F7C93FC01EF57EF
:10079000FE4F708189010F571E4FF8017083FA01D7
:1007A0002081211109C02881211106C02C9121111D
:1007B00003C0F8012081211160934302009759F68C
:1007C000109211021092E1011092B1011092810178
:1007D000DF91CF911F910F9108951F920F920FB645
:1007E0000F9211242F933F934F935F936F937F93B7
:1007F0008F939F93AF93BF93EF93FF9380914602A4
:10080000811113C00E941C0D6BE070E00E94950ADC
:1008100005966AE0869F802D112480934C0280917A
:100820004C020E94890A80934A02809141028230E0
:1008300009F086C080910801803309F07AC0909158
:100840004B0280914C02981708F073C00E941C0D57
:100850006FE070E00E94950A8F5F809347021092CC
:1008600008018091470283FF16C090914B0280914E
:100870004C02981780F40E941C0D62E070E00E9408
:10088000950A80937D0180914B028F5F80934B028C
:1008900081E0809311028091470282FF16C09091FF
:1008A0004B0280914C02981780F40E941C0D62E06C
:1008B00070E00E94950A80937E0180914B028F5FC9
:1008C00080934B0281E08093E1018091470281FF98
:1008D00016C090914B0280914C02981780F40E94B0
:1008E0001C0D62E070E00E94950A80937F01809168
:1008F0004B028F5F80934B0281E08093B101809126
:10090000470280FF16C090914B0280914C029817CD
:1009100080F40E941C0D62E070E00E94950A8093B2
:10092000800180914B028F5F80934B0281E0809326
:100930008101809108018F5F809308010E94A203CA
:10094000FF91EF91BF91AF919F918F917F916F91A7
:100950005F914F913F912F910F900FBE0F901F907D
:10096000189529986623A9F02B9A27E030E090E0AB
:10097000AC01022E02C0559547950A94E2F740FF5C
:100980000AC02C9A2D9A2D982150310988F7299A5E
:1009900008952B98EACF2C98F5CF60E00C94B10421
:1009A000CF93DF93219A229A239A249A259A2A9AFE
:1009B000299A8FE39CE90197F1F700C000002A987B
:1009C0009FEF2AE683E0915020408040E1F700C08D
:1009D00000002A9A299881E20E94CD0483E10E94B6
:1009E000CD0486E00E94CD0482EC0E94CD0480E21A
:1009F0000E94CD0489E00E94CD0480E80E94CD04CD
:100A000080E40E94CD04C8EFD1E061E080E00E9464
:100A1000B1042197D1F788E00E94CD048CE0DF91EA
:100A2000CF910C94CD0480E80E94CD0480E40E9414
:100A3000CD041092870410928804EFE8F2E088EF6A
:100A400091E0DF019C011D9221503040E1F70895B3
:100A5000811103C084E20C94CD0480E2FCCF962F78
:100A6000969596959695E82FF0E084E5989FE00D91
:100A7000F11D1124E157FD4F2081677081E090E066
:100A800001C0880F6A95EAF7442319F0282B2083C8
:100A9000089580952823FBCF8F929F92AF92BF92AB
:100AA000DF92EF92FF920F931F93CF93DF9300D0CB
:100AB00000D00F92CDB7DEB7E82FF62E80320CF4BF
:100AC0004DC0E05285E0E802B00111246E597E4F1E
:100AD00045E050E0CE0101960E942C0D8E010F5F83
:100AE0001F4F95E0F99E5001112487E0F89E4001C8
:100AF0001124E12CEA141B040CF463C080918704D8
:100B00008F5F9F2D990F990F9F0D890F80938704F9
:100B1000843558F080918804109287048F5F97E0A5
:100B2000F99E800D1124809388048091880480337D
:100B300020F010928704109288040F900F900F906D
:100B40000F900F90DF91CF911F910F91FF90EF9039
:100B5000DF90BF90AF909F908F900895EE0FFF0BA6
:100B6000E15BFD4F008111810115110509F0B9CF3D
:100B700045E050E062E671E0ADCFED0D5E0D8E2DEB
:100B80006F2D0E94890AD801A80FB11D2C9130E069
:100B90008D2D0E94890A02C0359527958A95E2F726
:100BA00041E020FF40E06E2F852F0E942F05D39457
:100BB000E091880450918704D8141904F4F2E39466
:100BC00099CFD12CF5CFE82F803234F4EE0FFF0B04
:100BD000E15BFD4F7183608308951F93CF93DF9393
:100BE000162FEC018991811104C0DF91CF911F91E3
:100BF0000895612F0E944C05F5CF80938704609380
:100C000088040895CF93DF9380E80E94CD0480E4A8
:100C10000E94CD04CFE8D2E061E089910E94B10446
:100C200084E0C738D807C1F7DF91CF9108954F927C
:100C30005F926F927F928F929F92AF92BF92CF926C
:100C4000DF92EF92FF92CF93DF93CDB7DEB762973B
:100C50000FB6F894DEBF0FBECDBF8D876987F22E29
:100C6000481B550BCA01550FAA0BBB0B89839A83EE
:100C7000AB83BC83BC01CD010E94D20B69837A8314
:100C80008B839C83AF2D4985A41BBB0BCD01BB0F70
:100C9000AA0BBB0B8D839E83AF83B887BC01CD01AC
:100CA0000E94D20B6D837E838F839887C980DA8000
:100CB000EB80FC80E894F7F84B015C01E894B7F80E
:100CC000A5019401C701B6010E94820C87FF02C0F2
:100CD00075016401A701960169817A818B819C81EC
:100CE0000E942F0B69837A838B839C834B015C0169
:100CF000A70196016D817E818F8198850E942F0BBF
:100D00002B013C019D85892F90E0B0E0A0E0898314
:100D10009A83AB83BC83BC01CD010E94D00B698355
:100D20007A838B839C839985892F90E0B0E0A0E043
:100D30008D839E83AF83B887BC01CD010E94D00B09
:100D40006D837E838F839887A1E0B0E0BA8BA98BF7
:100D500089899A89092E000CAA0BBB0B89879A876F
:100D6000AB87BC87BC01CD010E94D20B69877A8713
:100D70008B879C87A70196010E942A0B1816ACF45A
:100D800062960FB6F894DEBF0FBECDBFDF91CF9154
:100D9000FF90EF90DF90CF90BF90AF909F908F909B
:100DA0007F906F905F904F9008956D817E818F81CD
:100DB00098850E94A10B69877A878B879C876981B8
:100DC0007A818B819C810E94A10B6D877E878F87A2
:100DD000988B41E069858D850E942F05A5019401BE
:100DE00069817A818B819C810E94BE0A69837A83A2
:100DF0008B839C83A30192016D817E818F81988575
:100E00000E94BE0A6D837E838F83988789899A8921
:100E100001969A8B898B9CCF0F931F93CF93DF936F
:100E2000C82F162F042FD22F262F0E9417062D2FE2
:100E3000402F612F802F0E9417062D2F4C2F6D2FD2
:100E4000802F0E941706212F4C2F6D2F8C2FDF91A2
:100E5000CF911F910F910C941706EF92FF920F9371
:100E60001F93CF93DF93C82FF62E042FE22E262F49
:100E70000E9417062E2D4C2F6E2D802F0E941706D4
:100E8000D0E010E00C171D073CF4DF91CF911F91CB
:100E90000F91FF90EF9008952E2D4C2F6F2D8C2FDA
:100EA0000E9417062196EECF7F928F929F92AF926B
:100EB000BF92CF92DF92EF92FF920F931F93CF9347
:100EC000DF93D82EC62EC42FD0E0F12CE12C10E0F9
:100ED00000E041E0AC2CA00E6A2DBC2EBD0C8B2D89
:100EE0000E942F0541E08C2E8C0C682D9D2C900EBD
:100EF000892D0E942F0541E0682D7D2C701A872DC9
:100F00000E942F0541E06A2D8D2C8C1A882D0E949D
:100F10002F0541E0AC2CA01A6A2D882D0E942F05C8
:100F200041E08C2C8C1A682D872D0E942F0541E002
:100F3000682D892D0E942F0541E06A2D8B2D0E947E
:100F40002F051E141F045CF00F5F1F4FC801880F90
:100F5000991F0196E80EF91E1E141F043CF42197F8
:100F6000CE01880F991F0196E81AF90AC017D10718
:100F70000CF0AFCFDF91CF911F910F91FF90EF90C9
:100F8000DF90CF90BF90AF909F908F907F9008950B
:100F9000A4E0B0E0EEECF7E00C94A00FFC010FB67B
:100FA000F8948091890490918A04A0918B04B09167
:100FB0008C0489839A83AB83BC830FBE309721F066
:100FC00080839183A283B38369817A818B819C81A1
:100FD0002496E2E00C94BC0FF894109280001092DA
:100FE0008100109285001092840087E092E0909337
:100FF00089008093880080918100886080938100BF
:101000008091810085608093810080916F00826073
:1010100080936F0087B1807F87B9539888E08BB940
:101020008CE080936900E99A8091680084608093E5
:10103000680080916D00836080936D00789490E0EB
:1010400080E00E94C8070E94210D69E071E081E004
:101050000E94E3050E94D00482E0C82E93E0D92EBE
:1010600029E1F22E11E03AE1E32E0E94130580916E
:101070004102882341F080914102813021F080912A
:1010800041028330B9F48091410290E00E941F0236
:101090000E94020680914102833061F42AEA36EE12
:1010A00086E991E02150304080409040D9F700001F
:1010B0001092410280914402882309F419C2809160
:1010C000410290E00E941F0280914102823009F0AB
:1010D000F8C10CE0D0E0C0E0FE01EF5EFD4F808182
:1010E000882359F080917D01202F49E26C2F8823BD
:1010F00009F437C186E20E940C07FE01EF51FE4F52
:101100008081882359F080917E01202F45E36C2F48
:10111000882309F42AC182E30E940C07FE01EF54E0
:10112000FE4F8081882359F080917F01202F41E478
:101130006C2F882309F41DC18EE30E940C07FE0169
:10114000EF57FE4F8081882359F080918001202F36
:101150004DE46C2F882309F410C18AE40E940C0727
:1011600021960F5F0C3309F0B7CF809103018931CD
:1011700009F00EC180912A02882369F1809104014F
:10118000882349F180917D01813011F4339906C0A3
:1011900080917D018111F5C03399F3C0809149029E
:1011A0008F5F80934902109204011093790180911E
:1011B0004D0290914E02059690934E0280934D02FF
:1011C00080914D0290914E02059690934E0280932D
:1011D0004D02E092030180910201893109F000C1C2
:1011E0008091FA01882369F180910501882349F1F2
:1011F00080917E01813011F4329906C080917E0188
:101200008111E7C03299E5C0809149028F5F8093D8
:1012100049021092050110937A0180914D0290913C
:101220004E02059690934E0280934D0280914D029E
:1012300090914E02059690934E0280934D02E0925B
:10124000020180910101893109F0F2C08091CA0147
:10125000882369F180910601882349F180917F01FB
:10126000813011F4319906C080917F018111D9C07C
:101270003199D7C0809149028F5F809349021092C3
:10128000060110937B0180914D0290914E020596CC
:1012900090934E0280934D0280914D0290914E02A8
:1012A000059690934E0280934D02E0920101809149
:1012B0000001893109F0E4C080919A01882369F125
:1012C00080910701882349F180918001813011F4D8
:1012D000309906C0809180018111CBC03099C9C07E
:1012E000809149028F5F8093490210920701109309
:1012F0007C0180914D0290914E02059690934E0292
:1013000080934D0280914D0290914E0205969093EC
:101310004E0280934D02E092000180917801882373
:1013200049F01092490280914A02815080934A020A
:10133000109278019091490280914802891720F417
:10134000809149028093480280914A0287FFB9C088
:10135000D09241021092450210924402109246022D
:1013600084CE86E20E942D07C8CE82E30E942D071C
:10137000D5CE8EE30E942D07E2CE8AE40E942D078F
:10138000EFCE10920401109378011092790121CFD1
:1013900096EE980F9A3008F01ECF9091790199231C
:1013A00051F020914D0230914E022B5F3F4F309310
:1013B0004E0220934D0291E0980F833219F09093E2
:1013C000030109CFF09203011093040110927901F7
:1013D00002CF109205011093780110927A012FCF5D
:1013E00096EE980F9A3008F02CCF90917A019923BD
:1013F00051F020914D0230914E022B5F3F4F3093C0
:101400004E0220934D0291E0980F833219F0909391
:10141000020117CFF09202011093050110927A0198
:1014200010CF109206011093780110927B013DCFEE
:1014300096EE980F9A3008F03ACF90917B0199235D
:1014400051F020914D0230914E022B5F3F4F30936F
:101450004E0220934D0291E0980F833219F0909341
:10146000010125CFF09201011093060110927B013A
:101470001ECF109207011093780110927C014BCF80
:1014800096EE980F9A3008F048CF90917C019923FE
:1014900051F020914D0230914E022B5F3F4F30931F
:1014A0004E0220934D0291E0980F833219F09093F1
:1014B000000133CFF09200011093070110927C01DC
:1014C0002CCF8091450281110E94020690914B021F
:1014D00080914C0298130CC080914302811108C086
:1014E000D09241021092450210924402109246029C
:1014F00080914102813009F0B8CD2FEF33E284EFC3
:10150000215030408040E1F700C00000C09241020D
:10151000ACCD991B79E004C0991F961708F0961B73
:10152000881F7A95C9F78095089597FB072E16F4C2
:10153000009407D077FD09D00E94A90A07FC05D0C6
:101540003EF4909581959F4F0895709561957F4FDA
:101550000895AA1BBB1B51E107C0AA1FBB1FA617FA
:10156000B70710F0A61BB70B881F991F5A95A9F74C
:1015700080959095BC01CD0108955058BB27AA27AE
:101580000E94D50A0C94480C0E943A0C38F00E9434
:10159000410C20F039F49F3F19F426F40C94370CD9
:1015A0000EF4E095E7FB0C94310CE92F0E94590CE6
:1015B00058F3BA17620773078407950720F079F488
:1015C000A6F50C947B0C0EF4E0950B2EBA2FA02DF3
:1015D0000B01B90190010C01CA01A0011124FF27E0
:1015E000591B99F0593F50F4503E68F11A16F040DB
:1015F000A22F232F342F4427585FF3CF46953795DA
:101600002795A795F0405395C9F77EF41F16BA0B9E
:10161000620B730B840BBAF09150A1F0FF0FBB1F4C
:10162000661F771F881FC2F70EC0BA0F621F731F95
:10163000841F48F4879577956795B795F7959E3FF2
:1016400008F0B0CF9395880F08F09927EE0F979583
:10165000879508950E940D0C08F481E008950E947A
:10166000430B0C94480C0E94410C58F00E943A0C19
:1016700040F029F45F3F29F00C94310C51110C9487
:101680007C0C0C94370C0E94590C68F39923B1F32D
:10169000552391F3951B550BBB27AA276217730798
:1016A000840738F09F5F5F4F220F331F441FAA1F2C
:1016B000A9F335D00E2E3AF0E0E832D091505040E8
:1016C000E695001CCAF72BD0FE2F29D0660F771F96
:1016D000881FBB1F261737074807AB07B0E809F07C
:1016E000BB0B802DBF01FF2793585F4F3AF09E3F01
:1016F000510578F00C94310C0C947C0C5F3FE4F3B2
:10170000983ED4F3869577956795B795F7959F5F43
:10171000C9F7880F911D9695879597F90895E1E08F
:10172000660F771F881FBB1F621773078407BA07EE
:1017300020F0621B730B840BBA0BEE1F88F7E09549
:1017400008950E94610C88F09F5798F0B92F99274F
:10175000B751B0F0E1F0660F771F881F991F1AF09C
:10176000BA95C9F714C0B13091F00E947B0CB1E07A
:1017700008950C947B0C672F782F8827B85F39F079
:10178000B93FCCF3869577956795B395D9F73EF435
:1017900090958095709561957F4F8F4F9F4F0895DD
:1017A000E89409C097FB3EF49095809570956195FB
:1017B0007F4F8F4F9F4F9923A9F0F92F96E9BB27B1
:1017C0009395F695879577956795B795F111F8CF2D
:1017D000FAF4BB0F11F460FF1BC06F5F7F4F8F4F98
:1017E0009F4F16C0882311F096E911C0772321F08E
:1017F0009EE8872F762F05C0662371F096E8862F26
:1018000070E060E02AF09A95660F771F881FDAF77C
:10181000880F9695879597F90895990F0008550FA9
:10182000AA0BE0E8FEEF16161706E807F907C0F066
:1018300012161306E407F50798F0621B730B840B6E
:10184000950B39F40A2661F0232B242B252B21F448
:1018500008950A2609F4A140A6958FEF811D811DE8
:10186000089597F99F6780E870E060E008959FEF22
:1018700080EC089500240A94161617061806090627
:10188000089500240A9412161306140605060895F6
:10189000092E0394000C11F4882352F0BB0F40F47E
:1018A000BF2B11F460FF04C06F5F7F4F8F4F9F4FBE
:1018B000089557FD9058440F551F59F05F3F71F040
:1018C0004795880F97FB991F61F09F3F79F08795A7
:1018D0000895121613061406551FF2CF4695F1DF30
:1018E00008C0161617061806991FF1CF86957105C0
:1018F000610508940895E894BB2766277727CB01F4
:1019000097F908950E940D0C08F48FEF0895EF9257
:101910000F931F93CF93DF9300D000D00F92CDB7DA
:10192000DEB7322F0D8354E047FD54E1242F27FD0D
:101930002195E52E032F4D81512F69837A838B8367
:101940009C8369817A818B819C810E94350D8D8178
:10195000912F0F900F900F900F900F90DF91CF91DC
:101960001F910F91EF900895CF92DF92EF92FF9227
:10197000CF93DF93CDB7DEB72A970FB6F894DEBFCB
:101980000FBECDBF89879A87A985BA852D913D91D4
:101990004D915C9129833A834B835C83232B242BC9
:1019A000252B41F424E239ED4BE557E029833A83B6
:1019B0004B835C8369817A818B819C812DE133EF3C
:1019C00041E050E00E945E0F69017A01A7EAB1E4AC
:1019D0009B01AC010E947D0F69837A838B839C837A
:1019E000ACEEB4EFA70196010E948B0F9B01AC01F6
:1019F00089819A81AB81BC81820F931FA41FB51F7F
:101A0000B7FF03C00197A109B048E985FA85808333
:101A10009183A283B3839F772A960FB6F894DEBF93
:101A20000FBECDBFDF91CF91FF90EF90DF90CF90B1
:101A300008950E94B40C08958EE091E00E94B40CC9
:101A40000895B0E0A0E080930E0190930F01A09361
:101A50001001B09311010895FB01DC0102C0059053
:101A60000D9241505040D8F70895ADE0B0E0EBE35F
:101A7000FDE00C94900F6A01F22E402E2E2C102FB8
:101A80002BE3201708F41BE31F5F012F27E0AE01B3
:101A90004F5F5F4F6A877B878C879D876A857B85D1
:101AA0008C859D850E947F0E4C015980852D897003
:101AB0000DE2813039F00BE221FC04C0022D0295C9
:101AC000000F0072422D4071342E952D987053FEF8
:101AD0003CC083E0011184E08F15A8F5F81A31109D
:101AE0000BC0EF2CF12CA70160E270E0C6010E9450
:101AF000570FCE0CDF1CF12C002319F0F6010193D7
:101B00006F0186010D5F1F4F91E48EE422FC02C03D
:101B100091E68EE6D6018C9311969C9311971296BE
:101B20008C93EF2CF12CA70160E270E0C8010E94B9
:101B3000570FF801EE0DFF1D10828EEF9FEF2D96CF
:101B4000E2E10C94AC0FF12CCACF52FE35C083E019
:101B5000011184E08F1510F49F2D981B31100BC0DC
:101B6000E92EF12CA70160E270E0C6010E94570F38
:101B7000CE0CDF1C90E0002319F0F60101936F01F9
:101B80007601B3E0EB0EF11C39E42EE486E422FC8E
:101B900003C039E62EE686E6F60130832183828390
:101BA000092F10E0A80160E270E0C7010E94570F02
:101BB000F701E00FF11FC0CF540197FE02C0B12C16
:101BC000A12C81E090E0011102C090E080E095013D
:101BD0002F5F3F4F820F931F642C712C93012F5F57
:101BE0003F4F411002C030E020E0820F931FF816F3
:101BF000190609F00CF45FC0F81A31107DC023FCFF
:101C00000BC0EF2CF12CA70160E270E0C6010E942E
:101C1000570FCE0CDF1CF12C002329F0D6010D93B9
:101C20006D0131100BC0EF2CF12CA70160E370E0C7
:101C3000C6010E94570FCE0CDF1CF12C180D9A81A3
:101C4000252D207154FE03C0913309F41150111653
:101C5000A4F5193008F018E0F401EA19FB0941E095
:101C600050E04C0F5D1FE40FF51FA401411B51090B
:101C70007194619471083EE28A149B0404F14A1540
:101C80005B05ECF48181B1E0AB1AB10886010F5F0E
:101C90001F4FA614B704ACF0D6018C93BFEFAB1660
:101CA000BB0631F486010E5F1F4FD60111963C939F
:101CB00031966801E1CFF12CA0CF11E0CDCF80E3C8
:101CC000E2CF8A149B0439F4963320F4953319F447
:101CD000211101C081E3F6018083EF2CF12CA701D3
:101CE00060E270E0C8010E94570F0E0D1F1DD80161
:101CF0001C9290E080E023CF011190CF9FCF28303D
:101D000008F027E03327DA01990F311D87FD916034
:101D100000966105710539F432602E5F3D9330E322
:101D20002A95E1F708959F3F30F0803871056105ED
:101D300009F03C5F3C5F3D93913008F08068911D55
:101D4000DF93CF931F930F93FF92EF92192F987FFA
:101D50009695E92F96959695E90FFF27EE53FF4F3D
:101D600099273327EE24FF24A701E7010590089463
:101D7000079428F4360FE71EF81E491F511D660F01
:101D8000771F881F991F0694A1F70590079428F4E0
:101D9000E70EF81E491F561FC11D770F881F991F98
:101DA000661F0694A1F70590079428F4F80E491FC2
:101DB000561FC71FD11D880F991F661F771F0694D6
:101DC000A1F70590079420F4490F561FC71FD81F8D
:101DD000990F661F771F881F0694A9F784911095A5
:101DE000177041F0D695C79557954795F794E794A6
:101DF0001A95C1F7E8E6F0E06894159015913591D1
:101E00006591959105907FE27395E118F10A430B76
:101E1000560BC90BD009C0F7E10CF11E431F561F2A
:101E2000C91FD01D7EF4703311F48A95E6CFE89473
:101E3000015030F0080F0AF40027021708F4202F91
:101E40002395022F7A3328F079E37D932A95E9F7D9
:101E500010C07D932A9589F60694979567953795D6
:101E600017951794E118F10A430B560BC90BD009CB
:101E700098F023957E9173957A3308F070E37C9304
:101E80002013B8F77E9170617D9330F0839571E3F4
:101E90007D9370E32A95E1F71124EF90FF900F9165
:101EA0001F91CF91DF91992787FD90950895DC01CF
:101EB00001C06D9341505040E0F70895052E97FB07
:101EC0001EF400940E94750F57FD07D00E94C70FA3
:101ED00007FC03D04EF40C94750F50954095309547
:101EE00021953F4F4F4F5F4F089590958095709586
:101EF00061957F4F8F4F9F4F08950E94E90FA59FD7
:101F0000900DB49F900DA49F800D911D11240895F4
:101F1000B7FF0C947D0F0E947D0F821B930B0895D9
:101F20002F923F924F925F926F927F928F929F92E9
:101F3000AF92BF92CF92DF92EF92FF920F931F93D7
:101F4000CF93DF93CDB7DEB7CA1BDB0B0FB6F89488
:101F5000DEBF0FBECDBF09942A88398848885F84C8
:101F60006E847D848C849B84AA84B984C884DF8039
:101F7000EE80FD800C811B81AA81B981CE0FD11D1D
:101F80000FB6F894DEBF0FBECDBFED010895A1E2FC
:101F90001A2EAA1BBB1BFD010DC0AA1FBB1FEE1FE3
:101FA000FF1FA217B307E407F50720F0A21BB30B2E
:101FB000E40BF50B661F771F881F991F1A9469F7AA
:101FC00060957095809590959B01AC01BD01CF0106
:101FD0000895A29FB001B39FC001A39F700D811D02
:101FE0001124911DB29F700D811D1124911D089522
:041FF000F894FFCF93
:101FF4001919191901010101303E3E1C1C08010088
:102004000000477569746172204865726F00014E63
:1020140065772047616D6500095175697400094E43
:1020240065772047616D65000151756974003E470D
:102034004554205245414459213C0047616D652077
:102044004F76657221203A2800596F7520576F6EBC
:10205400212121203A440053636F72653A200053D2
:08206400747265616B3A200003
:00000001FF
